{
  "_format": "hh-sol-artifact-1",
  "contractName": "Palette",
  "sourceName": "contracts/Palette.sol",
  "abi": [
    {
      "inputs": [
        {
          "internalType": "string",
          "name": "name_",
          "type": "string"
        },
        {
          "internalType": "string",
          "name": "symbol_",
          "type": "string"
        }
      ],
      "stateMutability": "nonpayable",
      "type": "constructor"
    },
    {
      "anonymous": false,
      "inputs": [
        {
          "indexed": true,
          "internalType": "address",
          "name": "owner",
          "type": "address"
        },
        {
          "indexed": true,
          "internalType": "address",
          "name": "approved",
          "type": "address"
        },
        {
          "indexed": true,
          "internalType": "uint256",
          "name": "tokenId",
          "type": "uint256"
        }
      ],
      "name": "Approval",
      "type": "event"
    },
    {
      "anonymous": false,
      "inputs": [
        {
          "indexed": true,
          "internalType": "address",
          "name": "owner",
          "type": "address"
        },
        {
          "indexed": true,
          "internalType": "address",
          "name": "operator",
          "type": "address"
        },
        {
          "indexed": false,
          "internalType": "bool",
          "name": "approved",
          "type": "bool"
        }
      ],
      "name": "ApprovalForAll",
      "type": "event"
    },
    {
      "anonymous": false,
      "inputs": [
        {
          "indexed": true,
          "internalType": "address",
          "name": "from",
          "type": "address"
        },
        {
          "indexed": true,
          "internalType": "address",
          "name": "to",
          "type": "address"
        },
        {
          "indexed": true,
          "internalType": "uint256",
          "name": "tokenId",
          "type": "uint256"
        }
      ],
      "name": "Transfer",
      "type": "event"
    },
    {
      "inputs": [
        {
          "internalType": "address",
          "name": "to",
          "type": "address"
        },
        {
          "internalType": "uint256",
          "name": "tokenId",
          "type": "uint256"
        }
      ],
      "name": "approve",
      "outputs": [],
      "stateMutability": "nonpayable",
      "type": "function"
    },
    {
      "inputs": [
        {
          "internalType": "address",
          "name": "owner",
          "type": "address"
        }
      ],
      "name": "balanceOf",
      "outputs": [
        {
          "internalType": "uint256",
          "name": "",
          "type": "uint256"
        }
      ],
      "stateMutability": "view",
      "type": "function"
    },
    {
      "inputs": [
        {
          "internalType": "uint256",
          "name": "tokenId",
          "type": "uint256"
        }
      ],
      "name": "getApproved",
      "outputs": [
        {
          "internalType": "address",
          "name": "",
          "type": "address"
        }
      ],
      "stateMutability": "view",
      "type": "function"
    },
    {
      "inputs": [
        {
          "internalType": "address",
          "name": "owner",
          "type": "address"
        },
        {
          "internalType": "address",
          "name": "operator",
          "type": "address"
        }
      ],
      "name": "isApprovedForAll",
      "outputs": [
        {
          "internalType": "bool",
          "name": "",
          "type": "bool"
        }
      ],
      "stateMutability": "view",
      "type": "function"
    },
    {
      "inputs": [],
      "name": "isOwner",
      "outputs": [
        {
          "internalType": "bool",
          "name": "",
          "type": "bool"
        }
      ],
      "stateMutability": "view",
      "type": "function"
    },
    {
      "inputs": [
        {
          "internalType": "string",
          "name": "_tokenURI",
          "type": "string"
        }
      ],
      "name": "mint",
      "outputs": [],
      "stateMutability": "nonpayable",
      "type": "function"
    },
    {
      "inputs": [],
      "name": "name",
      "outputs": [
        {
          "internalType": "string",
          "name": "",
          "type": "string"
        }
      ],
      "stateMutability": "view",
      "type": "function"
    },
    {
      "inputs": [],
      "name": "owner",
      "outputs": [
        {
          "internalType": "address",
          "name": "",
          "type": "address"
        }
      ],
      "stateMutability": "view",
      "type": "function"
    },
    {
      "inputs": [
        {
          "internalType": "uint256",
          "name": "tokenId",
          "type": "uint256"
        }
      ],
      "name": "ownerOf",
      "outputs": [
        {
          "internalType": "address",
          "name": "",
          "type": "address"
        }
      ],
      "stateMutability": "view",
      "type": "function"
    },
    {
      "inputs": [
        {
          "internalType": "uint256",
          "name": "",
          "type": "uint256"
        },
        {
          "internalType": "uint256",
          "name": "value",
          "type": "uint256"
        }
      ],
      "name": "royaltyInfo",
      "outputs": [
        {
          "internalType": "address",
          "name": "receiver",
          "type": "address"
        },
        {
          "internalType": "uint256",
          "name": "royaltyAmount",
          "type": "uint256"
        }
      ],
      "stateMutability": "view",
      "type": "function"
    },
    {
      "inputs": [
        {
          "internalType": "address",
          "name": "from",
          "type": "address"
        },
        {
          "internalType": "address",
          "name": "to",
          "type": "address"
        },
        {
          "internalType": "uint256",
          "name": "tokenId",
          "type": "uint256"
        }
      ],
      "name": "safeTransferFrom",
      "outputs": [],
      "stateMutability": "nonpayable",
      "type": "function"
    },
    {
      "inputs": [
        {
          "internalType": "address",
          "name": "from",
          "type": "address"
        },
        {
          "internalType": "address",
          "name": "to",
          "type": "address"
        },
        {
          "internalType": "uint256",
          "name": "tokenId",
          "type": "uint256"
        },
        {
          "internalType": "bytes",
          "name": "_data",
          "type": "bytes"
        }
      ],
      "name": "safeTransferFrom",
      "outputs": [],
      "stateMutability": "nonpayable",
      "type": "function"
    },
    {
      "inputs": [
        {
          "internalType": "address",
          "name": "operator",
          "type": "address"
        },
        {
          "internalType": "bool",
          "name": "approved",
          "type": "bool"
        }
      ],
      "name": "setApprovalForAll",
      "outputs": [],
      "stateMutability": "nonpayable",
      "type": "function"
    },
    {
      "inputs": [
        {
          "internalType": "address",
          "name": "recipient",
          "type": "address"
        },
        {
          "internalType": "uint256",
          "name": "value",
          "type": "uint256"
        }
      ],
      "name": "setRoyalties",
      "outputs": [],
      "stateMutability": "nonpayable",
      "type": "function"
    },
    {
      "inputs": [
        {
          "internalType": "bytes4",
          "name": "interfaceId",
          "type": "bytes4"
        }
      ],
      "name": "supportsInterface",
      "outputs": [
        {
          "internalType": "bool",
          "name": "",
          "type": "bool"
        }
      ],
      "stateMutability": "view",
      "type": "function"
    },
    {
      "inputs": [],
      "name": "symbol",
      "outputs": [
        {
          "internalType": "string",
          "name": "",
          "type": "string"
        }
      ],
      "stateMutability": "view",
      "type": "function"
    },
    {
      "inputs": [],
      "name": "tokenCount",
      "outputs": [
        {
          "internalType": "uint256",
          "name": "",
          "type": "uint256"
        }
      ],
      "stateMutability": "view",
      "type": "function"
    },
    {
      "inputs": [],
      "name": "tokenCounter",
      "outputs": [
        {
          "internalType": "uint256",
          "name": "",
          "type": "uint256"
        }
      ],
      "stateMutability": "view",
      "type": "function"
    },
    {
      "inputs": [
        {
          "internalType": "uint256",
          "name": "_tokenId",
          "type": "uint256"
        }
      ],
      "name": "tokenCreator",
      "outputs": [
        {
          "internalType": "address",
          "name": "",
          "type": "address"
        }
      ],
      "stateMutability": "view",
      "type": "function"
    },
    {
      "inputs": [
        {
          "internalType": "uint256",
          "name": "_tokenId",
          "type": "uint256"
        }
      ],
      "name": "tokenURI",
      "outputs": [
        {
          "internalType": "string",
          "name": "",
          "type": "string"
        }
      ],
      "stateMutability": "view",
      "type": "function"
    },
    {
      "inputs": [
        {
          "internalType": "address",
          "name": "from",
          "type": "address"
        },
        {
          "internalType": "address",
          "name": "to",
          "type": "address"
        },
        {
          "internalType": "uint256",
          "name": "tokenId",
          "type": "uint256"
        }
      ],
      "name": "transferFrom",
      "outputs": [],
      "stateMutability": "nonpayable",
      "type": "function"
    }
  ],
  "bytecode": "0x60806040526101f46007553480156200001757600080fd5b50604051620031d6380380620031d683398181016040528101906200003d9190620001e6565b8181816000908051906020019062000057929190620000c4565b50806001908051906020019062000070929190620000c4565b50505033600860006101000a81548173ffffffffffffffffffffffffffffffffffffffff021916908373ffffffffffffffffffffffffffffffffffffffff16021790555060006009819055505050620003c9565b828054620000d290620002ee565b90600052602060002090601f016020900481019282620000f6576000855562000142565b82601f106200011157805160ff191683800117855562000142565b8280016001018555821562000142579182015b828111156200014157825182559160200191906001019062000124565b5b50905062000151919062000155565b5090565b5b808211156200017057600081600090555060010162000156565b5090565b60006200018b620001858462000282565b62000259565b905082815260208101848484011115620001a457600080fd5b620001b1848285620002b8565b509392505050565b600082601f830112620001cb57600080fd5b8151620001dd84826020860162000174565b91505092915050565b60008060408385031215620001fa57600080fd5b600083015167ffffffffffffffff8111156200021557600080fd5b6200022385828601620001b9565b925050602083015167ffffffffffffffff8111156200024157600080fd5b6200024f85828601620001b9565b9150509250929050565b60006200026562000278565b905062000273828262000324565b919050565b6000604051905090565b600067ffffffffffffffff821115620002a0576200029f62000389565b5b620002ab82620003b8565b9050602081019050919050565b60005b83811015620002d8578082015181840152602081019050620002bb565b83811115620002e8576000848401525b50505050565b600060028204905060018216806200030757607f821691505b602082108114156200031e576200031d6200035a565b5b50919050565b6200032f82620003b8565b810181811067ffffffffffffffff8211171562000351576200035062000389565b5b80604052505050565b7f4e487b7100000000000000000000000000000000000000000000000000000000600052602260045260246000fd5b7f4e487b7100000000000000000000000000000000000000000000000000000000600052604160045260246000fd5b6000601f19601f8301169050919050565b612dfd80620003d96000396000f3fe608060405234801561001057600080fd5b50600436106101375760003560e01c80638c7ea24b116100b8578063a22cb4651161007c578063a22cb46514610363578063b88d4fde1461037f578063c87b56dd1461039b578063d082e381146103cb578063d85d3d27146103e9578063e985e9c51461040557610137565b80638c7ea24b146102cf5780638da5cb5b146102eb5780638f32d59b1461030957806395d89b41146103275780639f181b5e1461034557610137565b80632a55205a116100ff5780632a55205a146101f257806340c1a0641461022357806342842e0e146102535780636352211e1461026f57806370a082311461029f57610137565b806301ffc9a71461013c57806306fdde031461016c578063081812fc1461018a578063095ea7b3146101ba57806323b872dd146101d6575b600080fd5b61015660048036038101906101519190611e61565b610435565b60405161016391906122b8565b60405180910390f35b610174610447565b60405161018191906122d3565b60405180910390f35b6101a4600480360381019061019f9190611ef4565b6104d9565b6040516101b19190612228565b60405180910390f35b6101d460048036038101906101cf9190611e25565b61055e565b005b6101f060048036038101906101eb9190611d1f565b610676565b005b61020c60048036038101906102079190611f1d565b6106d6565b60405161021a92919061228f565b60405180910390f35b61023d60048036038101906102389190611ef4565b610796565b60405161024a9190612228565b60405180910390f35b61026d60048036038101906102689190611d1f565b61081b565b005b61028960048036038101906102849190611ef4565b61083b565b6040516102969190612228565b60405180910390f35b6102b960048036038101906102b49190611cba565b6108ed565b6040516102c691906124f5565b60405180910390f35b6102e960048036038101906102e49190611e25565b6109a5565b005b6102f36109c4565b6040516103009190612228565b60405180910390f35b6103116109ee565b60405161031e91906122b8565b60405180910390f35b61032f610a46565b60405161033c91906122d3565b60405180910390f35b61034d610ad8565b60405161035a91906124f5565b60405180910390f35b61037d60048036038101906103789190611de9565b610ae2565b005b61039960048036038101906103949190611d6e565b610af8565b005b6103b560048036038101906103b09190611ef4565b610b5a565b6040516103c291906122d3565b60405180910390f35b6103d3610c47565b6040516103e091906124f5565b60405180910390f35b61040360048036038101906103fe9190611eb3565b610c4d565b005b61041f600480360381019061041a9190611ce3565b610c81565b60405161042c91906122b8565b60405180910390f35b600061044082610d15565b9050919050565b6060600080546104569061279a565b80601f01602080910402602001604051908101604052809291908181526020018280546104829061279a565b80156104cf5780601f106104a4576101008083540402835291602001916104cf565b820191906000526020600020905b8154815290600101906020018083116104b257829003601f168201915b5050505050905090565b60006104e482610d8f565b610523576040517f08c379a000000000000000000000000000000000000000000000000000000000815260040161051a90612455565b60405180910390fd5b6004600083815260200190815260200160002060009054906101000a900473ffffffffffffffffffffffffffffffffffffffff169050919050565b60006105698261083b565b90508073ffffffffffffffffffffffffffffffffffffffff168373ffffffffffffffffffffffffffffffffffffffff1614156105da576040517f08c379a00000000000000000000000000000000000000000000000000000000081526004016105d190612495565b60405180910390fd5b8073ffffffffffffffffffffffffffffffffffffffff166105f9610dfb565b73ffffffffffffffffffffffffffffffffffffffff161480610628575061062781610622610dfb565b610c81565b5b610667576040517f08c379a000000000000000000000000000000000000000000000000000000000815260040161065e906123d5565b60405180910390fd5b6106718383610e03565b505050565b610687610681610dfb565b82610ebc565b6106c6576040517f08c379a00000000000000000000000000000000000000000000000000000000081526004016106bd906124b5565b60405180910390fd5b6106d1838383610f9a565b505050565b600080600060066040518060400160405290816000820160009054906101000a900473ffffffffffffffffffffffffffffffffffffffff1673ffffffffffffffffffffffffffffffffffffffff1673ffffffffffffffffffffffffffffffffffffffff1681526020016000820160149054906101000a900462ffffff1662ffffff1662ffffff1681525050905080600001519250612710816020015162ffffff16856107829190612656565b61078c9190612625565b9150509250929050565b60006107a182610d8f565b6107e0576040517f08c379a00000000000000000000000000000000000000000000000000000000081526004016107d7906124d5565b60405180910390fd5b600b600083815260200190815260200160002060009054906101000a900473ffffffffffffffffffffffffffffffffffffffff169050919050565b61083683838360405180602001604052806000815250610af8565b505050565b6000806002600084815260200190815260200160002060009054906101000a900473ffffffffffffffffffffffffffffffffffffffff169050600073ffffffffffffffffffffffffffffffffffffffff168173ffffffffffffffffffffffffffffffffffffffff1614156108e4576040517f08c379a00000000000000000000000000000000000000000000000000000000081526004016108db90612415565b60405180910390fd5b80915050919050565b60008073ffffffffffffffffffffffffffffffffffffffff168273ffffffffffffffffffffffffffffffffffffffff16141561095e576040517f08c379a0000000000000000000000000000000000000000000000000000000008152600401610955906123f5565b60405180910390fd5b600360008373ffffffffffffffffffffffffffffffffffffffff1673ffffffffffffffffffffffffffffffffffffffff168152602001908152602001600020549050919050565b6109ad6109ee565b6109b657600080fd5b6109c08282611201565b5050565b6000600860009054906101000a900473ffffffffffffffffffffffffffffffffffffffff16905090565b6000600860009054906101000a900473ffffffffffffffffffffffffffffffffffffffff1673ffffffffffffffffffffffffffffffffffffffff163373ffffffffffffffffffffffffffffffffffffffff1614905090565b606060018054610a559061279a565b80601f0160208091040260200160405190810160405280929190818152602001828054610a819061279a565b8015610ace5780601f10610aa357610100808354040283529160200191610ace565b820191906000526020600020905b815481529060010190602001808311610ab157829003601f168201915b5050505050905090565b6000600954905090565b610af4610aed610dfb565b83836112eb565b5050565b610b09610b03610dfb565b83610ebc565b610b48576040517f08c379a0000000000000000000000000000000000000000000000000000000008152600401610b3f906124b5565b60405180910390fd5b610b5484848484611458565b50505050565b6060610b6582610d8f565b610ba4576040517f08c379a0000000000000000000000000000000000000000000000000000000008152600401610b9b906124d5565b60405180910390fd5b600a60008381526020019081526020016000208054610bc29061279a565b80601f0160208091040260200160405190810160405280929190818152602001828054610bee9061279a565b8015610c3b5780601f10610c1057610100808354040283529160200191610c3b565b820191906000526020600020905b815481529060010190602001808311610c1e57829003601f168201915b50505050509050919050565b60095481565b610c59336009546114b4565b610c6660095482336114d2565b60096000815480929190610c79906127fd565b919050555050565b6000600560008473ffffffffffffffffffffffffffffffffffffffff1673ffffffffffffffffffffffffffffffffffffffff16815260200190815260200160002060008373ffffffffffffffffffffffffffffffffffffffff1673ffffffffffffffffffffffffffffffffffffffff16815260200190815260200160002060009054906101000a900460ff16905092915050565b60007f2a55205a000000000000000000000000000000000000000000000000000000007bffffffffffffffffffffffffffffffffffffffffffffffffffffffff1916827bffffffffffffffffffffffffffffffffffffffffffffffffffffffff19161480610d885750610d8782611599565b5b9050919050565b60008073ffffffffffffffffffffffffffffffffffffffff166002600084815260200190815260200160002060009054906101000a900473ffffffffffffffffffffffffffffffffffffffff1673ffffffffffffffffffffffffffffffffffffffff1614159050919050565b600033905090565b816004600083815260200190815260200160002060006101000a81548173ffffffffffffffffffffffffffffffffffffffff021916908373ffffffffffffffffffffffffffffffffffffffff160217905550808273ffffffffffffffffffffffffffffffffffffffff16610e768361083b565b73ffffffffffffffffffffffffffffffffffffffff167f8c5be1e5ebec7d5bd14f71427d1e84f3dd0314c0f7b2291e5b200ac8c7c3b92560405160405180910390a45050565b6000610ec782610d8f565b610f06576040517f08c379a0000000000000000000000000000000000000000000000000000000008152600401610efd906123b5565b60405180910390fd5b6000610f118361083b565b90508073ffffffffffffffffffffffffffffffffffffffff168473ffffffffffffffffffffffffffffffffffffffff161480610f535750610f528185610c81565b5b80610f9157508373ffffffffffffffffffffffffffffffffffffffff16610f79846104d9565b73ffffffffffffffffffffffffffffffffffffffff16145b91505092915050565b8273ffffffffffffffffffffffffffffffffffffffff16610fba8261083b565b73ffffffffffffffffffffffffffffffffffffffff1614611010576040517f08c379a000000000000000000000000000000000000000000000000000000000815260040161100790612335565b60405180910390fd5b600073ffffffffffffffffffffffffffffffffffffffff168273ffffffffffffffffffffffffffffffffffffffff161415611080576040517f08c379a000000000000000000000000000000000000000000000000000000000815260040161107790612375565b60405180910390fd5b61108b83838361167b565b611096600082610e03565b6001600360008573ffffffffffffffffffffffffffffffffffffffff1673ffffffffffffffffffffffffffffffffffffffff16815260200190815260200160002060008282546110e691906126b0565b925050819055506001600360008473ffffffffffffffffffffffffffffffffffffffff1673ffffffffffffffffffffffffffffffffffffffff168152602001908152602001600020600082825461113d91906125cf565b92505081905550816002600083815260200190815260200160002060006101000a81548173ffffffffffffffffffffffffffffffffffffffff021916908373ffffffffffffffffffffffffffffffffffffffff160217905550808273ffffffffffffffffffffffffffffffffffffffff168473ffffffffffffffffffffffffffffffffffffffff167fddf252ad1be2c89b69c2b068fc378daa952ba7f163c4a11628f55a4df523b3ef60405160405180910390a46111fc838383611680565b505050565b600754811115611246576040517f08c379a000000000000000000000000000000000000000000000000000000000815260040161123d906122f5565b60405180910390fd5b60405180604001604052808373ffffffffffffffffffffffffffffffffffffffff1681526020018262ffffff16815250600660008201518160000160006101000a81548173ffffffffffffffffffffffffffffffffffffffff021916908373ffffffffffffffffffffffffffffffffffffffff16021790555060208201518160000160146101000a81548162ffffff021916908362ffffff1602179055509050505050565b8173ffffffffffffffffffffffffffffffffffffffff168373ffffffffffffffffffffffffffffffffffffffff16141561135a576040517f08c379a000000000000000000000000000000000000000000000000000000000815260040161135190612395565b60405180910390fd5b80600560008573ffffffffffffffffffffffffffffffffffffffff1673ffffffffffffffffffffffffffffffffffffffff16815260200190815260200160002060008473ffffffffffffffffffffffffffffffffffffffff1673ffffffffffffffffffffffffffffffffffffffff16815260200190815260200160002060006101000a81548160ff0219169083151502179055508173ffffffffffffffffffffffffffffffffffffffff168373ffffffffffffffffffffffffffffffffffffffff167f17307eab39ab6107e8899845ad3d59bd9653f200f220920489ca2b5937696c318360405161144b91906122b8565b60405180910390a3505050565b611463848484610f9a565b61146f84848484611685565b6114ae576040517f08c379a00000000000000000000000000000000000000000000000000000000081526004016114a590612315565b60405180910390fd5b50505050565b6114ce82826040518060200160405280600081525061181c565b5050565b6114db83610d8f565b61151a576040517f08c379a000000000000000000000000000000000000000000000000000000000815260040161151190612475565b60405180910390fd5b81600a60008581526020019081526020016000209080519060200190611541929190611ade565b5080600b600085815260200190815260200160002060006101000a81548173ffffffffffffffffffffffffffffffffffffffff021916908373ffffffffffffffffffffffffffffffffffffffff160217905550505050565b60007f80ac58cd000000000000000000000000000000000000000000000000000000007bffffffffffffffffffffffffffffffffffffffffffffffffffffffff1916827bffffffffffffffffffffffffffffffffffffffffffffffffffffffff1916148061166457507f5b5e139f000000000000000000000000000000000000000000000000000000007bffffffffffffffffffffffffffffffffffffffffffffffffffffffff1916827bffffffffffffffffffffffffffffffffffffffffffffffffffffffff1916145b80611674575061167382611877565b5b9050919050565b505050565b505050565b60006116a68473ffffffffffffffffffffffffffffffffffffffff166118e1565b1561180f578373ffffffffffffffffffffffffffffffffffffffff1663150b7a026116cf610dfb565b8786866040518563ffffffff1660e01b81526004016116f19493929190612243565b602060405180830381600087803b15801561170b57600080fd5b505af192505050801561173c57506040513d601f19601f820116820180604052508101906117399190611e8a565b60015b6117bf573d806000811461176c576040519150601f19603f3d011682016040523d82523d6000602084013e611771565b606091505b506000815114156117b7576040517f08c379a00000000000000000000000000000000000000000000000000000000081526004016117ae90612315565b60405180910390fd5b805181602001fd5b63150b7a0260e01b7bffffffffffffffffffffffffffffffffffffffffffffffffffffffff1916817bffffffffffffffffffffffffffffffffffffffffffffffffffffffff191614915050611814565b600190505b949350505050565b6118268383611904565b6118336000848484611685565b611872576040517f08c379a000000000000000000000000000000000000000000000000000000000815260040161186990612315565b60405180910390fd5b505050565b60007f01ffc9a7000000000000000000000000000000000000000000000000000000007bffffffffffffffffffffffffffffffffffffffffffffffffffffffff1916827bffffffffffffffffffffffffffffffffffffffffffffffffffffffff1916149050919050565b6000808273ffffffffffffffffffffffffffffffffffffffff163b119050919050565b600073ffffffffffffffffffffffffffffffffffffffff168273ffffffffffffffffffffffffffffffffffffffff161415611974576040517f08c379a000000000000000000000000000000000000000000000000000000000815260040161196b90612435565b60405180910390fd5b61197d81610d8f565b156119bd576040517f08c379a00000000000000000000000000000000000000000000000000000000081526004016119b490612355565b60405180910390fd5b6119c96000838361167b565b6001600360008473ffffffffffffffffffffffffffffffffffffffff1673ffffffffffffffffffffffffffffffffffffffff1681526020019081526020016000206000828254611a1991906125cf565b92505081905550816002600083815260200190815260200160002060006101000a81548173ffffffffffffffffffffffffffffffffffffffff021916908373ffffffffffffffffffffffffffffffffffffffff160217905550808273ffffffffffffffffffffffffffffffffffffffff16600073ffffffffffffffffffffffffffffffffffffffff167fddf252ad1be2c89b69c2b068fc378daa952ba7f163c4a11628f55a4df523b3ef60405160405180910390a4611ada60008383611680565b5050565b828054611aea9061279a565b90600052602060002090601f016020900481019282611b0c5760008555611b53565b82601f10611b2557805160ff1916838001178555611b53565b82800160010185558215611b53579182015b82811115611b52578251825591602001919060010190611b37565b5b509050611b609190611b64565b5090565b5b80821115611b7d576000816000905550600101611b65565b5090565b6000611b94611b8f84612535565b612510565b905082815260208101848484011115611bac57600080fd5b611bb7848285612758565b509392505050565b6000611bd2611bcd84612566565b612510565b905082815260208101848484011115611bea57600080fd5b611bf5848285612758565b509392505050565b600081359050611c0c81612d6b565b92915050565b600081359050611c2181612d82565b92915050565b600081359050611c3681612d99565b92915050565b600081519050611c4b81612d99565b92915050565b600082601f830112611c6257600080fd5b8135611c72848260208601611b81565b91505092915050565b600082601f830112611c8c57600080fd5b8135611c9c848260208601611bbf565b91505092915050565b600081359050611cb481612db0565b92915050565b600060208284031215611ccc57600080fd5b6000611cda84828501611bfd565b91505092915050565b60008060408385031215611cf657600080fd5b6000611d0485828601611bfd565b9250506020611d1585828601611bfd565b9150509250929050565b600080600060608486031215611d3457600080fd5b6000611d4286828701611bfd565b9350506020611d5386828701611bfd565b9250506040611d6486828701611ca5565b9150509250925092565b60008060008060808587031215611d8457600080fd5b6000611d9287828801611bfd565b9450506020611da387828801611bfd565b9350506040611db487828801611ca5565b925050606085013567ffffffffffffffff811115611dd157600080fd5b611ddd87828801611c51565b91505092959194509250565b60008060408385031215611dfc57600080fd5b6000611e0a85828601611bfd565b9250506020611e1b85828601611c12565b9150509250929050565b60008060408385031215611e3857600080fd5b6000611e4685828601611bfd565b9250506020611e5785828601611ca5565b9150509250929050565b600060208284031215611e7357600080fd5b6000611e8184828501611c27565b91505092915050565b600060208284031215611e9c57600080fd5b6000611eaa84828501611c3c565b91505092915050565b600060208284031215611ec557600080fd5b600082013567ffffffffffffffff811115611edf57600080fd5b611eeb84828501611c7b565b91505092915050565b600060208284031215611f0657600080fd5b6000611f1484828501611ca5565b91505092915050565b60008060408385031215611f3057600080fd5b6000611f3e85828601611ca5565b9250506020611f4f85828601611ca5565b9150509250929050565b611f62816126e4565b82525050565b611f71816126f6565b82525050565b6000611f8282612597565b611f8c81856125ad565b9350611f9c818560208601612767565b611fa581612902565b840191505092915050565b6000611fbb826125a2565b611fc581856125be565b9350611fd5818560208601612767565b611fde81612902565b840191505092915050565b6000611ff6601a836125be565b915061200182612913565b602082019050919050565b60006120196032836125be565b91506120248261293c565b604082019050919050565b600061203c6025836125be565b91506120478261298b565b604082019050919050565b600061205f601c836125be565b915061206a826129da565b602082019050919050565b60006120826024836125be565b915061208d82612a03565b604082019050919050565b60006120a56019836125be565b91506120b082612a52565b602082019050919050565b60006120c8602c836125be565b91506120d382612a7b565b604082019050919050565b60006120eb6038836125be565b91506120f682612aca565b604082019050919050565b600061210e602a836125be565b915061211982612b19565b604082019050919050565b60006121316029836125be565b915061213c82612b68565b604082019050919050565b60006121546020836125be565b915061215f82612bb7565b602082019050919050565b6000612177602c836125be565b915061218282612be0565b604082019050919050565b600061219a602c836125be565b91506121a582612c2f565b604082019050919050565b60006121bd6021836125be565b91506121c882612c7e565b604082019050919050565b60006121e06031836125be565b91506121eb82612ccd565b604082019050919050565b60006122036027836125be565b915061220e82612d1c565b604082019050919050565b6122228161274e565b82525050565b600060208201905061223d6000830184611f59565b92915050565b60006080820190506122586000830187611f59565b6122656020830186611f59565b6122726040830185612219565b81810360608301526122848184611f77565b905095945050505050565b60006040820190506122a46000830185611f59565b6122b16020830184612219565b9392505050565b60006020820190506122cd6000830184611f68565b92915050565b600060208201905081810360008301526122ed8184611fb0565b905092915050565b6000602082019050818103600083015261230e81611fe9565b9050919050565b6000602082019050818103600083015261232e8161200c565b9050919050565b6000602082019050818103600083015261234e8161202f565b9050919050565b6000602082019050818103600083015261236e81612052565b9050919050565b6000602082019050818103600083015261238e81612075565b9050919050565b600060208201905081810360008301526123ae81612098565b9050919050565b600060208201905081810360008301526123ce816120bb565b9050919050565b600060208201905081810360008301526123ee816120de565b9050919050565b6000602082019050818103600083015261240e81612101565b9050919050565b6000602082019050818103600083015261242e81612124565b9050919050565b6000602082019050818103600083015261244e81612147565b9050919050565b6000602082019050818103600083015261246e8161216a565b9050919050565b6000602082019050818103600083015261248e8161218d565b9050919050565b600060208201905081810360008301526124ae816121b0565b9050919050565b600060208201905081810360008301526124ce816121d3565b9050919050565b600060208201905081810360008301526124ee816121f6565b9050919050565b600060208201905061250a6000830184612219565b92915050565b600061251a61252b565b905061252682826127cc565b919050565b6000604051905090565b600067ffffffffffffffff8211156125505761254f6128d3565b5b61255982612902565b9050602081019050919050565b600067ffffffffffffffff821115612581576125806128d3565b5b61258a82612902565b9050602081019050919050565b600081519050919050565b600081519050919050565b600082825260208201905092915050565b600082825260208201905092915050565b60006125da8261274e565b91506125e58361274e565b9250827fffffffffffffffffffffffffffffffffffffffffffffffffffffffffffffffff0382111561261a57612619612846565b5b828201905092915050565b60006126308261274e565b915061263b8361274e565b92508261264b5761264a612875565b5b828204905092915050565b60006126618261274e565b915061266c8361274e565b9250817fffffffffffffffffffffffffffffffffffffffffffffffffffffffffffffffff04831182151516156126a5576126a4612846565b5b828202905092915050565b60006126bb8261274e565b91506126c68361274e565b9250828210156126d9576126d8612846565b5b828203905092915050565b60006126ef8261272e565b9050919050565b60008115159050919050565b60007fffffffff0000000000000000000000000000000000000000000000000000000082169050919050565b600073ffffffffffffffffffffffffffffffffffffffff82169050919050565b6000819050919050565b82818337600083830152505050565b60005b8381101561278557808201518184015260208101905061276a565b83811115612794576000848401525b50505050565b600060028204905060018216806127b257607f821691505b602082108114156127c6576127c56128a4565b5b50919050565b6127d582612902565b810181811067ffffffffffffffff821117156127f4576127f36128d3565b5b80604052505050565b60006128088261274e565b91507fffffffffffffffffffffffffffffffffffffffffffffffffffffffffffffffff82141561283b5761283a612846565b5b600182019050919050565b7f4e487b7100000000000000000000000000000000000000000000000000000000600052601160045260246000fd5b7f4e487b7100000000000000000000000000000000000000000000000000000000600052601260045260246000fd5b7f4e487b7100000000000000000000000000000000000000000000000000000000600052602260045260246000fd5b7f4e487b7100000000000000000000000000000000000000000000000000000000600052604160045260246000fd5b6000601f19601f8301169050919050565b7f45524332393831526f79616c746965733a20546f6f2068696768000000000000600082015250565b7f4552433732313a207472616e7366657220746f206e6f6e20455243373231526560008201527f63656976657220696d706c656d656e7465720000000000000000000000000000602082015250565b7f4552433732313a207472616e736665722066726f6d20696e636f72726563742060008201527f6f776e6572000000000000000000000000000000000000000000000000000000602082015250565b7f4552433732313a20746f6b656e20616c7265616479206d696e74656400000000600082015250565b7f4552433732313a207472616e7366657220746f20746865207a65726f2061646460008201527f7265737300000000000000000000000000000000000000000000000000000000602082015250565b7f4552433732313a20617070726f766520746f2063616c6c657200000000000000600082015250565b7f4552433732313a206f70657261746f7220717565727920666f72206e6f6e657860008201527f697374656e7420746f6b656e0000000000000000000000000000000000000000602082015250565b7f4552433732313a20617070726f76652063616c6c6572206973206e6f74206f7760008201527f6e6572206e6f7220617070726f76656420666f7220616c6c0000000000000000602082015250565b7f4552433732313a2062616c616e636520717565727920666f7220746865207a6560008201527f726f206164647265737300000000000000000000000000000000000000000000602082015250565b7f4552433732313a206f776e657220717565727920666f72206e6f6e657869737460008201527f656e7420746f6b656e0000000000000000000000000000000000000000000000602082015250565b7f4552433732313a206d696e7420746f20746865207a65726f2061646472657373600082015250565b7f4552433732313a20617070726f76656420717565727920666f72206e6f6e657860008201527f697374656e7420746f6b656e0000000000000000000000000000000000000000602082015250565b7f4552433732314d657461646174613a2055524920736574206f66206e6f6e657860008201527f697374656e7420746f6b656e0000000000000000000000000000000000000000602082015250565b7f4552433732313a20617070726f76616c20746f2063757272656e74206f776e6560008201527f7200000000000000000000000000000000000000000000000000000000000000602082015250565b7f4552433732313a207472616e736665722063616c6c6572206973206e6f74206f60008201527f776e6572206e6f7220617070726f766564000000000000000000000000000000602082015250565b7f4552433732314d657461646174613a20546f6b656e20696420646f6573206e6f60008201527f7420657869737400000000000000000000000000000000000000000000000000602082015250565b612d74816126e4565b8114612d7f57600080fd5b50565b612d8b816126f6565b8114612d9657600080fd5b50565b612da281612702565b8114612dad57600080fd5b50565b612db98161274e565b8114612dc457600080fd5b5056fea2646970667358221220ebfd831a1bfbbffa79b04586286aedc8e72d75d02924d5733af2c97e9405689564736f6c63430008040033",
  "linkReferences": {},
  "deployedLinkReferences": {}
}